{
    "contractName": "Pack",
    "abi": [
        {
            "anonymous": false,
            "inputs": [
                {
                    "indexed": true,
                    "internalType": "address",
                    "name": "owner",
                    "type": "address"
                },
                {
                    "indexed": true,
                    "internalType": "address",
                    "name": "approved",
                    "type": "address"
                },
                {
                    "indexed": true,
                    "internalType": "uint256",
                    "name": "tokenId",
                    "type": "uint256"
                }
            ],
            "name": "Approval",
            "type": "event"
        },
        {
            "anonymous": false,
            "inputs": [
                {
                    "indexed": true,
                    "internalType": "address",
                    "name": "owner",
                    "type": "address"
                },
                {
                    "indexed": true,
                    "internalType": "address",
                    "name": "operator",
                    "type": "address"
                },
                {
                    "indexed": false,
                    "internalType": "bool",
                    "name": "approved",
                    "type": "bool"
                }
            ],
            "name": "ApprovalForAll",
            "type": "event"
        },
        {
            "anonymous": false,
            "inputs": [
                {
                    "indexed": true,
                    "internalType": "address",
                    "name": "previousOwner",
                    "type": "address"
                },
                {
                    "indexed": true,
                    "internalType": "address",
                    "name": "newOwner",
                    "type": "address"
                }
            ],
            "name": "OwnershipTransferred",
            "type": "event"
        },
        {
            "anonymous": false,
            "inputs": [
                {
                    "indexed": true,
                    "internalType": "address",
                    "name": "from",
                    "type": "address"
                },
                {
                    "indexed": true,
                    "internalType": "address",
                    "name": "to",
                    "type": "address"
                },
                {
                    "indexed": true,
                    "internalType": "uint256",
                    "name": "tokenId",
                    "type": "uint256"
                }
            ],
            "name": "Transfer",
            "type": "event"
        },
        {
            "inputs": [],
            "name": "LandNFT",
            "outputs": [
                {
                    "internalType": "contract INFT",
                    "name": "",
                    "type": "address"
                }
            ],
            "stateMutability": "view",
            "type": "function"
        },
        {
            "inputs": [],
            "name": "SeedNFT",
            "outputs": [
                {
                    "internalType": "contract INFT",
                    "name": "",
                    "type": "address"
                }
            ],
            "stateMutability": "view",
            "type": "function"
        },
        {
            "inputs": [],
            "name": "SkinNFT",
            "outputs": [
                {
                    "internalType": "contract INFT",
                    "name": "",
                    "type": "address"
                }
            ],
            "stateMutability": "view",
            "type": "function"
        },
        {
            "inputs": [],
            "name": "_INTERFACE_ID_ERC721_VERIFY_FINGERPRINT",
            "outputs": [
                {
                    "internalType": "bytes4",
                    "name": "",
                    "type": "bytes4"
                }
            ],
            "stateMutability": "view",
            "type": "function"
        },
        {
            "inputs": [
                {
                    "internalType": "uint256",
                    "name": "_range",
                    "type": "uint256"
                }
            ],
            "name": "_random",
            "outputs": [
                {
                    "internalType": "uint256",
                    "name": "",
                    "type": "uint256"
                }
            ],
            "stateMutability": "view",
            "type": "function"
        },
        {
            "inputs": [],
            "name": "admin",
            "outputs": [
                {
                    "internalType": "address",
                    "name": "",
                    "type": "address"
                }
            ],
            "stateMutability": "view",
            "type": "function"
        },
        {
            "inputs": [
                {
                    "internalType": "address",
                    "name": "to",
                    "type": "address"
                },
                {
                    "internalType": "uint256",
                    "name": "tokenId",
                    "type": "uint256"
                }
            ],
            "name": "approve",
            "outputs": [],
            "stateMutability": "nonpayable",
            "type": "function"
        },
        {
            "inputs": [
                {
                    "internalType": "address",
                    "name": "owner",
                    "type": "address"
                }
            ],
            "name": "balanceOf",
            "outputs": [
                {
                    "internalType": "uint256",
                    "name": "",
                    "type": "uint256"
                }
            ],
            "stateMutability": "view",
            "type": "function"
        },
        {
            "inputs": [
                {
                    "internalType": "uint256",
                    "name": "",
                    "type": "uint256"
                }
            ],
            "name": "extraInfoMap",
            "outputs": [
                {
                    "internalType": "string",
                    "name": "metaDataURI",
                    "type": "string"
                },
                {
                    "internalType": "bytes32",
                    "name": "metaDataHash",
                    "type": "bytes32"
                }
            ],
            "stateMutability": "view",
            "type": "function"
        },
        {
            "inputs": [
                {
                    "internalType": "uint256",
                    "name": "tokenId",
                    "type": "uint256"
                }
            ],
            "name": "getApproved",
            "outputs": [
                {
                    "internalType": "address",
                    "name": "",
                    "type": "address"
                }
            ],
            "stateMutability": "view",
            "type": "function"
        },
        {
            "inputs": [
                {
                    "internalType": "string",
                    "name": "_metaData",
                    "type": "string"
                }
            ],
            "name": "getMetaDataHash",
            "outputs": [
                {
                    "internalType": "bytes32",
                    "name": "",
                    "type": "bytes32"
                }
            ],
            "stateMutability": "pure",
            "type": "function"
        },
        {
            "inputs": [
                {
                    "internalType": "address",
                    "name": "_addr",
                    "type": "address"
                }
            ],
            "name": "getTokenIdsByAddress",
            "outputs": [
                {
                    "internalType": "uint256[]",
                    "name": "",
                    "type": "uint256[]"
                }
            ],
            "stateMutability": "view",
            "type": "function"
        },
        {
            "inputs": [
                {
                    "internalType": "address",
                    "name": "_seed",
                    "type": "address"
                },
                {
                    "internalType": "address",
                    "name": "_skin",
                    "type": "address"
                },
                {
                    "internalType": "address",
                    "name": "_land",
                    "type": "address"
                }
            ],
            "name": "initialize",
            "outputs": [],
            "stateMutability": "nonpayable",
            "type": "function"
        },
        {
            "inputs": [
                {
                    "internalType": "address",
                    "name": "owner",
                    "type": "address"
                },
                {
                    "internalType": "address",
                    "name": "operator",
                    "type": "address"
                }
            ],
            "name": "isApprovedForAll",
            "outputs": [
                {
                    "internalType": "bool",
                    "name": "",
                    "type": "bool"
                }
            ],
            "stateMutability": "view",
            "type": "function"
        },
        {
            "inputs": [
                {
                    "internalType": "address",
                    "name": "_address",
                    "type": "address"
                }
            ],
            "name": "isInWhitelist",
            "outputs": [
                {
                    "internalType": "bool",
                    "name": "",
                    "type": "bool"
                }
            ],
            "stateMutability": "view",
            "type": "function"
        },
        {
            "inputs": [
                {
                    "internalType": "string",
                    "name": "_tokenURI",
                    "type": "string"
                },
                {
                    "internalType": "uint256",
                    "name": "_tokenMeta",
                    "type": "uint256"
                },
                {
                    "internalType": "address",
                    "name": "_owner",
                    "type": "address"
                }
            ],
            "name": "mint",
            "outputs": [],
            "stateMutability": "nonpayable",
            "type": "function"
        },
        {
            "inputs": [],
            "name": "name",
            "outputs": [
                {
                    "internalType": "string",
                    "name": "",
                    "type": "string"
                }
            ],
            "stateMutability": "view",
            "type": "function"
        },
        {
            "inputs": [
                {
                    "internalType": "uint256",
                    "name": "_tokenId",
                    "type": "uint256"
                }
            ],
            "name": "openPack",
            "outputs": [],
            "stateMutability": "nonpayable",
            "type": "function"
        },
        {
            "inputs": [],
            "name": "owner",
            "outputs": [
                {
                    "internalType": "address",
                    "name": "",
                    "type": "address"
                }
            ],
            "stateMutability": "view",
            "type": "function"
        },
        {
            "inputs": [
                {
                    "internalType": "uint256",
                    "name": "tokenId",
                    "type": "uint256"
                }
            ],
            "name": "ownerOf",
            "outputs": [
                {
                    "internalType": "address",
                    "name": "",
                    "type": "address"
                }
            ],
            "stateMutability": "view",
            "type": "function"
        },
        {
            "inputs": [],
            "name": "renounceOwnership",
            "outputs": [],
            "stateMutability": "nonpayable",
            "type": "function"
        },
        {
            "inputs": [
                {
                    "internalType": "address",
                    "name": "from",
                    "type": "address"
                },
                {
                    "internalType": "address",
                    "name": "to",
                    "type": "address"
                },
                {
                    "internalType": "uint256",
                    "name": "tokenId",
                    "type": "uint256"
                }
            ],
            "name": "safeTransferFrom",
            "outputs": [],
            "stateMutability": "nonpayable",
            "type": "function"
        },
        {
            "inputs": [
                {
                    "internalType": "address",
                    "name": "from",
                    "type": "address"
                },
                {
                    "internalType": "address",
                    "name": "to",
                    "type": "address"
                },
                {
                    "internalType": "uint256",
                    "name": "tokenId",
                    "type": "uint256"
                },
                {
                    "internalType": "bytes",
                    "name": "_data",
                    "type": "bytes"
                }
            ],
            "name": "safeTransferFrom",
            "outputs": [],
            "stateMutability": "nonpayable",
            "type": "function"
        },
        {
            "inputs": [
                {
                    "internalType": "address",
                    "name": "operator",
                    "type": "address"
                },
                {
                    "internalType": "bool",
                    "name": "approved",
                    "type": "bool"
                }
            ],
            "name": "setApprovalForAll",
            "outputs": [],
            "stateMutability": "nonpayable",
            "type": "function"
        },
        {
            "inputs": [
                {
                    "internalType": "string",
                    "name": "_newbaseTokenURI",
                    "type": "string"
                }
            ],
            "name": "setBaseURI",
            "outputs": [],
            "stateMutability": "nonpayable",
            "type": "function"
        },
        {
            "inputs": [
                {
                    "internalType": "bytes4",
                    "name": "interfaceId",
                    "type": "bytes4"
                }
            ],
            "name": "supportsInterface",
            "outputs": [
                {
                    "internalType": "bool",
                    "name": "",
                    "type": "bool"
                }
            ],
            "stateMutability": "view",
            "type": "function"
        },
        {
            "inputs": [],
            "name": "symbol",
            "outputs": [
                {
                    "internalType": "string",
                    "name": "",
                    "type": "string"
                }
            ],
            "stateMutability": "view",
            "type": "function"
        },
        {
            "inputs": [
                {
                    "internalType": "uint256",
                    "name": "index",
                    "type": "uint256"
                }
            ],
            "name": "tokenByIndex",
            "outputs": [
                {
                    "internalType": "uint256",
                    "name": "",
                    "type": "uint256"
                }
            ],
            "stateMutability": "view",
            "type": "function"
        },
        {
            "inputs": [
                {
                    "internalType": "uint256",
                    "name": "tokenId",
                    "type": "uint256"
                }
            ],
            "name": "tokenMetaData",
            "outputs": [
                {
                    "internalType": "uint256",
                    "name": "",
                    "type": "uint256"
                }
            ],
            "stateMutability": "view",
            "type": "function"
        },
        {
            "inputs": [
                {
                    "internalType": "address",
                    "name": "owner",
                    "type": "address"
                },
                {
                    "internalType": "uint256",
                    "name": "index",
                    "type": "uint256"
                }
            ],
            "name": "tokenOfOwnerByIndex",
            "outputs": [
                {
                    "internalType": "uint256",
                    "name": "",
                    "type": "uint256"
                }
            ],
            "stateMutability": "view",
            "type": "function"
        },
        {
            "inputs": [
                {
                    "internalType": "uint256",
                    "name": "tokenId",
                    "type": "uint256"
                }
            ],
            "name": "tokenURI",
            "outputs": [
                {
                    "internalType": "string",
                    "name": "",
                    "type": "string"
                }
            ],
            "stateMutability": "view",
            "type": "function"
        },
        {
            "inputs": [],
            "name": "totalSupply",
            "outputs": [
                {
                    "internalType": "uint256",
                    "name": "",
                    "type": "uint256"
                }
            ],
            "stateMutability": "view",
            "type": "function"
        },
        {
            "inputs": [
                {
                    "internalType": "address",
                    "name": "from",
                    "type": "address"
                },
                {
                    "internalType": "address",
                    "name": "to",
                    "type": "address"
                },
                {
                    "internalType": "uint256",
                    "name": "tokenId",
                    "type": "uint256"
                }
            ],
            "name": "transferFrom",
            "outputs": [],
            "stateMutability": "nonpayable",
            "type": "function"
        },
        {
            "inputs": [
                {
                    "internalType": "address",
                    "name": "newOwner",
                    "type": "address"
                }
            ],
            "name": "transferOwnership",
            "outputs": [],
            "stateMutability": "nonpayable",
            "type": "function"
        },
        {
            "inputs": [
                {
                    "internalType": "uint256",
                    "name": "_tokenId",
                    "type": "uint256"
                },
                {
                    "internalType": "bytes32",
                    "name": "_fingerprint",
                    "type": "bytes32"
                }
            ],
            "name": "verifyFingerprint",
            "outputs": [
                {
                    "internalType": "bool",
                    "name": "",
                    "type": "bool"
                }
            ],
            "stateMutability": "view",
            "type": "function"
        }
    ],
    "bytecode": "608060405234801561001057600080fd5b5061341c806100206000396000f3fe608060405234801561001057600080fd5b50600436106102115760003560e01c806370a0823111610125578063af6a3476116100ad578063c87b56dd1161007c578063c87b56dd146104e3578063e985e9c5146104f6578063eb4d289114610532578063f2fde38b14610546578063f851a4401461055957600080fd5b8063af6a347614610496578063b88d4fde146104a9578063ba9adc9d146104bc578063c0c53b8b146104d057600080fd5b806389d5feee116100f457806389d5feee146104245780638cb5b56b146104445780638da5cb5b1461046a57806395d89b411461047b578063a22cb4651461048357600080fd5b806370a08231146103e2578063715018a6146103f557806378392298146103fd5780637af1388c1461041157600080fd5b806323b872dd116101a85780634f6ccce7116101775780634f6ccce71461037557806350a88c7e1461038857806353ed87651461039b57806355f804b3146103bc5780636352211e146103cf57600080fd5b806323b872dd146103295780632f745c591461033c57806342842e0e1461034f5780634f64f0491461036257600080fd5b8063095ea7b3116101e4578063095ea7b31461029f57806309fd8212146102b457806316606e4b146102e157806318160ddd1461032157600080fd5b806301ffc9a714610216578063046d30c71461023e57806306fdde031461025f578063081812fc14610274575b600080fd5b610229610224366004612c99565b61056d565b60405190151581526020015b60405180910390f35b61025161024c366004612cb6565b61057e565b604051908152602001610235565b6102676105c7565b6040516102359190612d27565b610287610282366004612cb6565b610659565b6040516001600160a01b039091168152602001610235565b6102b26102ad366004612d56565b6106e6565b005b6102296102c2366004612d80565b6001600160a01b03166000908152610135602052604090205460ff1690565b6103087f8cb5b56b0b357b005adf5059f554ed4289f3f4f430f156b4eee18609bb91c36881565b6040516001600160e01b03199091168152602001610235565b609954610251565b6102b2610337366004612d9b565b6107fc565b61025161034a366004612d56565b61083f565b6102b261035d366004612d9b565b6108d5565b610251610370366004612e83565b6108f0565b610251610383366004612cb6565b610968565b6102b2610396366004612cb6565b6109fb565b6103ae6103a9366004612cb6565b611369565b604051610235929190612eb8565b6102b26103ca366004612e83565b61140e565b6102876103dd366004612cb6565b61144c565b6102516103f0366004612d80565b6114c3565b6102b261154a565b61013054610287906001600160a01b031681565b6102b261041f366004612eda565b611580565b610437610432366004612d80565b61168e565b6040516102359190612f31565b610229610452366004612f75565b60009182526101386020526040909120600101541490565b60fb546001600160a01b0316610287565b6102676116fb565b6102b2610491366004612f97565b61170a565b6102516104a4366004612cb6565b611715565b6102b26104b7366004612fd3565b61173d565b61013254610287906001600160a01b031681565b6102b26104de36600461304f565b611775565b6102676104f1366004612cb6565b6119ac565b610229610504366004613089565b6001600160a01b039182166000908152606a6020908152604080832093909416825291909152205460ff1690565b61013154610287906001600160a01b031681565b6102b2610554366004612d80565b6119b7565b61012f54610287906001600160a01b031681565b600061057882611a52565b92915050565b6000436341c64e6d61303964010000000084818361059c87876130d2565b6105a691906130f1565b6105b0919061311f565b90506105bc878261311f565b979650505050505050565b6060606580546105d690613133565b80601f016020809104026020016040519081016040528092919081815260200182805461060290613133565b801561064f5780601f106106245761010080835404028352916020019161064f565b820191906000526020600020905b81548152906001019060200180831161063257829003601f168201915b5050505050905090565b600061066482611a77565b6106ca5760405162461bcd60e51b815260206004820152602c60248201527f4552433732313a20617070726f76656420717565727920666f72206e6f6e657860448201526b34b9ba32b73a103a37b5b2b760a11b60648201526084015b60405180910390fd5b506000908152606960205260409020546001600160a01b031690565b60006106f18261144c565b9050806001600160a01b0316836001600160a01b0316141561075f5760405162461bcd60e51b815260206004820152602160248201527f4552433732313a20617070726f76616c20746f2063757272656e74206f776e656044820152603960f91b60648201526084016106c1565b336001600160a01b038216148061077b575061077b8133610504565b6107ed5760405162461bcd60e51b815260206004820152603860248201527f4552433732313a20617070726f76652063616c6c6572206973206e6f74206f7760448201527f6e6572206e6f7220617070726f76656420666f7220616c6c000000000000000060648201526084016106c1565b6107f78383611a94565b505050565b610807838383611b02565b6108118382611b33565b6001600160a01b03909116600090815261013360209081526040822080546001810182559083529120015550565b600061084a836114c3565b82106108ac5760405162461bcd60e51b815260206004820152602b60248201527f455243373231456e756d657261626c653a206f776e657220696e646578206f7560448201526a74206f6620626f756e647360a81b60648201526084016106c1565b506001600160a01b03919091166000908152609760209081526040808320938352929052205490565b6107f78383836040518060200160405280600081525061173d565b60008082604051602001610904919061316e565b60408051808303601f1901815282825280516020918201207f19457468657265756d205369676e6564204d6573736167653a0a33320000000082850152603c8085019190915282518085039091018152605c90930190915281519101209392505050565b600061097360995490565b82106109d65760405162461bcd60e51b815260206004820152602c60248201527f455243373231456e756d657261626c653a20676c6f62616c20696e646578206f60448201526b7574206f6620626f756e647360a01b60648201526084016106c1565b609982815481106109e9576109e961318a565b90600052602060002001549050919050565b610a048161144c565b6001600160a01b0316336001600160a01b031614610a5b5760405162461bcd60e51b815260206004820152601460248201527321b0b63632b91034b9903737ba1037bbb732b91760611b60448201526064016106c1565b600081815261013460205260409020546001811415610b455761013054604051631ebc4e2360e21b81526001600160a01b0390911690637af1388c90610aa89060009033906004016131a0565b600060405180830381600087803b158015610ac257600080fd5b505af1158015610ad6573d6000803e3d6000fd5b505061013154604051631ebc4e2360e21b81526001600160a01b039091169250637af1388c9150610b0e9060009033906004016131a0565b600060405180830381600087803b158015610b2857600080fd5b505af1158015610b3c573d6000803e3d6000fd5b5050505061135c565b8060021415610c3f5760005b6002811015610c395761013054604051631ebc4e2360e21b81526001600160a01b0390911690637af1388c90610b8e9060009033906004016131a0565b600060405180830381600087803b158015610ba857600080fd5b505af1158015610bbc573d6000803e3d6000fd5b505061013154604051631ebc4e2360e21b81526001600160a01b039091169250637af1388c9150610bf49060019033906004016131a0565b600060405180830381600087803b158015610c0e57600080fd5b505af1158015610c22573d6000803e3d6000fd5b505050508080610c31906131c7565b915050610b51565b5061135c565b8060031415610d815733600090815261013560205260408120805460ff191660011790555b6002811015610d4c5761013054604051631ebc4e2360e21b81526001600160a01b0390911690637af1388c90610ca19060009033906004016131a0565b600060405180830381600087803b158015610cbb57600080fd5b505af1158015610ccf573d6000803e3d6000fd5b505061013154604051631ebc4e2360e21b81526001600160a01b039091169250637af1388c9150610d079060029033906004016131a0565b600060405180830381600087803b158015610d2157600080fd5b505af1158015610d35573d6000803e3d6000fd5b505050508080610d44906131c7565b915050610c64565b5061013254604051631ebc4e2360e21b81526001600160a01b0390911690637af1388c90610b0e9060069033906004016131a0565b80600414156110dc5733600090815261013560205260408120805460ff191660011790555b6004811015610e285761013054604051631ebc4e2360e21b81526001600160a01b0390911690637af1388c90610de39060009033906004016131a0565b600060405180830381600087803b158015610dfd57600080fd5b505af1158015610e11573d6000803e3d6000fd5b505050508080610e20906131c7565b915050610da6565b5061013154604051631ebc4e2360e21b81526001600160a01b0390911690637af1388c90610e5d9060029033906004016131a0565b600060405180830381600087803b158015610e7757600080fd5b505af1158015610e8b573d6000803e3d6000fd5b50505050610e99600361057e565b610f285760005b6002811015610f225761013154604051631ebc4e2360e21b81526001600160a01b0390911690637af1388c90610edd9060029033906004016131a0565b600060405180830381600087803b158015610ef757600080fd5b505af1158015610f0b573d6000803e3d6000fd5b505050508080610f1a906131c7565b915050610ea0565b50611057565b610f32600361057e565b60011415610fbf5760005b6002811015610f225761013154604051631ebc4e2360e21b81526001600160a01b0390911690637af1388c90610f7a9060039033906004016131a0565b600060405180830381600087803b158015610f9457600080fd5b505af1158015610fa8573d6000803e3d6000fd5b505050508080610fb7906131c7565b915050610f3d565b610fc9600361057e565b600214156110575760005b60028110156110555761013154604051631ebc4e2360e21b81526001600160a01b0390911690637af1388c9061101090600490339082016131a0565b600060405180830381600087803b15801561102a57600080fd5b505af115801561103e573d6000803e3d6000fd5b50505050808061104d906131c7565b915050610fd4565b505b60005b6002811015610c395761013254604051631ebc4e2360e21b81526001600160a01b0390911690637af1388c906110979060069033906004016131a0565b600060405180830381600087803b1580156110b157600080fd5b505af11580156110c5573d6000803e3d6000fd5b5050505080806110d4906131c7565b91505061105a565b806005141561135c5733600090815261013560205260408120805460ff191660011790555b600a8110156111835761013054604051631ebc4e2360e21b81526001600160a01b0390911690637af1388c9061113e9060009033906004016131a0565b600060405180830381600087803b15801561115857600080fd5b505af115801561116c573d6000803e3d6000fd5b50505050808061117b906131c7565b915050611101565b5060005b60038110156112095761013154604051631ebc4e2360e21b81526001600160a01b0390911690637af1388c906111c49060029033906004016131a0565b600060405180830381600087803b1580156111de57600080fd5b505af11580156111f2573d6000803e3d6000fd5b505050508080611201906131c7565b915050611187565b5061013154604051631ebc4e2360e21b81526001600160a01b0390911690637af1388c9061123e9060039033906004016131a0565b600060405180830381600087803b15801561125857600080fd5b505af115801561126c573d6000803e3d6000fd5b505061013154604051631ebc4e2360e21b81526001600160a01b039091169250637af1388c91506112a390600490339082016131a0565b600060405180830381600087803b1580156112bd57600080fd5b505af11580156112d1573d6000803e3d6000fd5b5050505060005b600581101561135a5761013254604051631ebc4e2360e21b81526001600160a01b0390911690637af1388c906113159060069033906004016131a0565b600060405180830381600087803b15801561132f57600080fd5b505af1158015611343573d6000803e3d6000fd5b505050508080611352906131c7565b9150506112d8565b505b61136582611cb9565b5050565b6101386020526000908152604090208054819061138590613133565b80601f01602080910402602001604051908101604052809291908181526020018280546113b190613133565b80156113fe5780601f106113d3576101008083540402835291602001916113fe565b820191906000526020600020905b8154815290600101906020018083116113e157829003601f168201915b5050505050908060010154905082565b60fb546001600160a01b031633146114385760405162461bcd60e51b81526004016106c1906131e2565b80516113659061012e906020840190612bb4565b6000818152606760205260408120546001600160a01b0316806105785760405162461bcd60e51b815260206004820152602960248201527f4552433732313a206f776e657220717565727920666f72206e6f6e657869737460448201526832b73a103a37b5b2b760b91b60648201526084016106c1565b60006001600160a01b03821661152e5760405162461bcd60e51b815260206004820152602a60248201527f4552433732313a2062616c616e636520717565727920666f7220746865207a65604482015269726f206164647265737360b01b60648201526084016106c1565b506001600160a01b031660009081526068602052604090205490565b60fb546001600160a01b031633146115745760405162461bcd60e51b81526004016106c1906131e2565b61157e6000611cc2565b565b600082815261013660209081526040808320546101379092529091205411156115f75760405162461bcd60e51b815260206004820152602360248201527f45786365656473206d6178696d756d20737570706c7920666f7220746869732060448201526213919560ea1b60648201526084016106c1565b600061160361012d5490565b905061160f8282611d14565b6116198185611e53565b6116238184611ede565b6001600160a01b0382166000908152610133602090815260408220805460018101825590835291200181905561165a61012d611f3b565b60008381526101376020526040902054611675906001611f58565b6000938452610137602052604090932092909255505050565b6001600160a01b038116600090815261013360209081526040918290208054835181840281018401909452808452606093928301828280156116ef57602002820191906000526020600020905b8154815260200190600101908083116116db575b50505050509050919050565b6060606680546105d690613133565b611365338383611fbe565b600061172082611a77565b61172957600080fd5b506000908152610134602052604090205490565b611747338361208d565b6117635760405162461bcd60e51b81526004016106c190613217565b61176f84848484612177565b50505050565b600054610100900460ff166117905760005460ff1615611794565b303b155b6117f75760405162461bcd60e51b815260206004820152602e60248201527f496e697469616c697a61626c653a20636f6e747261637420697320616c72656160448201526d191e481a5b9a5d1a585b1a5e995960921b60648201526084016106c1565b600054610100900460ff16158015611819576000805461ffff19166101011790555b6118646040518060400160405280600e81526020016d466f756e6465725061636b61676560901b8152506040518060400160405280600381526020016250434b60e81b8152506121aa565b61012f8054336001600160a01b031991821617909155610130805482166001600160a01b03878116919091179091556101318054831686831617905561013280549092169084161790556101366020526105dc7f51d6fdb3121932cfc04bb42e8c5cc689745fb5fb74fc25ea8dd6f9b2090fe55455610fa07ff8a04ac52df5ce9f4d92e1fe4f31ac0a58f97fe32cbcea302d069d34b75f060a556109c47fb014becd32f87866b94293b1319621a39bf9314f9e3899fba91d1eb343d9216f556103e87f086ac2568ca8b2ad86ba97cd1d6de708f3430b7ae9fadc1b8b68b1b446f7607b5560fa7faf0dd9f7c78ee07cd75b7e2f12c28eedf98a59ba0c8f2115a150a3b29e6f601355600560005260327f4cd36913e405e4d0550a144618cd533445714d6f5d65353f1f8381e372d31af955801561176f576000805461ff001916905550505050565b6060610578826121db565b60fb546001600160a01b031633146119e15760405162461bcd60e51b81526004016106c1906131e2565b6001600160a01b038116611a465760405162461bcd60e51b815260206004820152602660248201527f4f776e61626c653a206e6577206f776e657220697320746865207a65726f206160448201526564647265737360d01b60648201526084016106c1565b611a4f81611cc2565b50565b60006001600160e01b0319821663780e9d6360e01b148061057857506105788261233d565b6000908152606760205260409020546001600160a01b0316151590565b600081815260696020526040902080546001600160a01b0319166001600160a01b0384169081179091558190611ac98261144c565b6001600160a01b03167f8c5be1e5ebec7d5bd14f71427d1e84f3dd0314c0f7b2291e5b200ac8c7c3b92560405160405180910390a45050565b611b0c338261208d565b611b285760405162461bcd60e51b81526004016106c190613217565b6107f7838383612396565b6000805b6001600160a01b03841660009081526101336020526040902054811015611bb1576001600160a01b038416600090815261013360205260409020805484919083908110611b8657611b8661318a565b90600052602060002001541415611b9f57809150611bb1565b80611ba9816131c7565b915050611b37565b50805b6001600160a01b03841660009081526101336020526040902054611bda90600190613268565b811015611c75576001600160a01b038416600090815261013360205260409020611c058260016130f1565b81548110611c1557611c1561318a565b90600052602060002001546101336000866001600160a01b03166001600160a01b031681526020019081526020016000208281548110611c5757611c5761318a565b60009182526020909120015580611c6d816131c7565b915050611bb4565b506001600160a01b038316600090815261013360205260409020805480611c9e57611c9e61327f565b60019003818190600052602060002001600090559055505050565b611a4f8161253d565b60fb80546001600160a01b038381166001600160a01b0319831681179093556040519116919082907f8be0079c531659141344cd1fd0a4f28419497f9722a3daafe3b4186f6b6457e090600090a35050565b6001600160a01b038216611d6a5760405162461bcd60e51b815260206004820181905260248201527f4552433732313a206d696e7420746f20746865207a65726f206164647265737360448201526064016106c1565b611d7381611a77565b15611dc05760405162461bcd60e51b815260206004820152601c60248201527f4552433732313a20746f6b656e20616c7265616479206d696e7465640000000060448201526064016106c1565b611dcc6000838361257d565b6001600160a01b0382166000908152606860205260408120805460019290611df59084906130f1565b909155505060008181526067602052604080822080546001600160a01b0319166001600160a01b03861690811790915590518392907fddf252ad1be2c89b69c2b068fc378daa952ba7f163c4a11628f55a4df523b3ef908290a45050565b611e5c82611a77565b611ebf5760405162461bcd60e51b815260206004820152602e60248201527f45524337323155524953746f726167653a2055524920736574206f66206e6f6e60448201526d32bc34b9ba32b73a103a37b5b2b760911b60648201526084016106c1565b600082815260c96020908152604090912082516107f792840190612bb4565b611ee782611a77565b611f285760405162461bcd60e51b8152602060048201526012602482015271151bdad95b881259081b9bdd08195e1a5cdd60721b60448201526064016106c1565b6000918252610134602052604090912055565b6001816000016000828254611f5091906130f1565b909155505050565b600080611f6583856130f1565b905083811015611fb75760405162461bcd60e51b815260206004820152601b60248201527f536166654d6174683a206164646974696f6e206f766572666c6f77000000000060448201526064016106c1565b9392505050565b816001600160a01b0316836001600160a01b031614156120205760405162461bcd60e51b815260206004820152601960248201527f4552433732313a20617070726f766520746f2063616c6c65720000000000000060448201526064016106c1565b6001600160a01b038381166000818152606a6020908152604080832094871680845294825291829020805460ff191686151590811790915591519182527f17307eab39ab6107e8899845ad3d59bd9653f200f220920489ca2b5937696c31910160405180910390a3505050565b600061209882611a77565b6120f95760405162461bcd60e51b815260206004820152602c60248201527f4552433732313a206f70657261746f7220717565727920666f72206e6f6e657860448201526b34b9ba32b73a103a37b5b2b760a11b60648201526084016106c1565b60006121048361144c565b9050806001600160a01b0316846001600160a01b0316148061213f5750836001600160a01b031661213484610659565b6001600160a01b0316145b8061216f57506001600160a01b038082166000908152606a602090815260408083209388168352929052205460ff165b949350505050565b612182848484612396565b61218e84848484612588565b61176f5760405162461bcd60e51b81526004016106c190613295565b600054610100900460ff166121d15760405162461bcd60e51b81526004016106c1906132e7565b6113658282612686565b60606121e682611a77565b61224c5760405162461bcd60e51b815260206004820152603160248201527f45524337323155524953746f726167653a2055524920717565727920666f72206044820152703737b732bc34b9ba32b73a103a37b5b2b760791b60648201526084016106c1565b600082815260c960205260408120805461226590613133565b80601f016020809104026020016040519081016040528092919081815260200182805461229190613133565b80156122de5780601f106122b3576101008083540402835291602001916122de565b820191906000526020600020905b8154815290600101906020018083116122c157829003601f168201915b5050505050905060006122ef6126d4565b9050805160001415612302575092915050565b81511561233457808260405160200161231c929190613332565b60405160208183030381529060405292505050919050565b61216f846126e4565b60006001600160e01b031982166380ac58cd60e01b148061236e57506001600160e01b03198216635b5e139f60e01b145b8061057857506001600160e01b0319821660009081526033602052604090205460ff16610578565b826001600160a01b03166123a98261144c565b6001600160a01b03161461240d5760405162461bcd60e51b815260206004820152602560248201527f4552433732313a207472616e736665722066726f6d20696e636f72726563742060448201526437bbb732b960d91b60648201526084016106c1565b6001600160a01b03821661246f5760405162461bcd60e51b8152602060048201526024808201527f4552433732313a207472616e7366657220746f20746865207a65726f206164646044820152637265737360e01b60648201526084016106c1565b61247a83838361257d565b612485600082611a94565b6001600160a01b03831660009081526068602052604081208054600192906124ae908490613268565b90915550506001600160a01b03821660009081526068602052604081208054600192906124dc9084906130f1565b909155505060008181526067602052604080822080546001600160a01b0319166001600160a01b0386811691821790925591518493918716917fddf252ad1be2c89b69c2b068fc378daa952ba7f163c4a11628f55a4df523b3ef91a4505050565b612546816127ae565b600081815260c960205260409020805461255f90613133565b159050611a4f57600081815260c960205260408120611a4f91612c38565b6107f7838383612855565b60006001600160a01b0384163b1561267b57604051630a85bd0160e11b81526001600160a01b0385169063150b7a02906125cc903390899088908890600401613361565b6020604051808303816000875af1925050508015612607575060408051601f3d908101601f191682019092526126049181019061339e565b60015b612661573d808015612635576040519150601f19603f3d011682016040523d82523d6000602084013e61263a565b606091505b5080516126595760405162461bcd60e51b81526004016106c190613295565b805181602001fd5b6001600160e01b031916630a85bd0160e11b14905061216f565b506001949350505050565b600054610100900460ff166126ad5760405162461bcd60e51b81526004016106c1906132e7565b81516126c0906065906020850190612bb4565b5080516107f7906066906020840190612bb4565b606061012e80546105d690613133565b60606126ef82611a77565b6127535760405162461bcd60e51b815260206004820152602f60248201527f4552433732314d657461646174613a2055524920717565727920666f72206e6f60448201526e3732bc34b9ba32b73a103a37b5b2b760891b60648201526084016106c1565b600061275d6126d4565b9050600081511161277d5760405180602001604052806000815250611fb7565b806127878461290d565b604051602001612798929190613332565b6040516020818303038152906040529392505050565b60006127b98261144c565b90506127c78160008461257d565b6127d2600083611a94565b6001600160a01b03811660009081526068602052604081208054600192906127fb908490613268565b909155505060008281526067602052604080822080546001600160a01b0319169055518391906001600160a01b038416907fddf252ad1be2c89b69c2b068fc378daa952ba7f163c4a11628f55a4df523b3ef908390a45050565b6001600160a01b0383166128b0576128ab81609980546000838152609a60205260408120829055600182018355919091527f72a152ddfb8e864297c917af52ea6c1c68aead0fee1a62673fcc7e0c94979d000155565b6128d3565b816001600160a01b0316836001600160a01b0316146128d3576128d38382612a24565b6001600160a01b0382166128ea576107f781612ac1565b826001600160a01b0316826001600160a01b0316146107f7576107f78282612b70565b6060816129315750506040805180820190915260018152600360fc1b602082015290565b8160005b811561295b5780612945816131c7565b91506129549050600a836133bb565b9150612935565b60008167ffffffffffffffff81111561297657612976612dd7565b6040519080825280601f01601f1916602001820160405280156129a0576020820181803683370190505b50905060006129b0600184613268565b90508593505b8315612a1b576129c7600a8561311f565b6129d29060306130f1565b60f81b82826129e0816133cf565b9350815181106129f2576129f261318a565b60200101906001600160f81b031916908160001a905350612a14600a856133bb565b93506129b6565b50949350505050565b60006001612a31846114c3565b612a3b9190613268565b600083815260986020526040902054909150808214612a8e576001600160a01b03841660009081526097602090815260408083208584528252808320548484528184208190558352609890915290208190555b5060009182526098602090815260408084208490556001600160a01b039094168352609781528383209183525290812055565b609954600090612ad390600190613268565b6000838152609a602052604081205460998054939450909284908110612afb57612afb61318a565b906000526020600020015490508060998381548110612b1c57612b1c61318a565b6000918252602080832090910192909255828152609a90915260408082208490558582528120556099805480612b5457612b5461327f565b6001900381819060005260206000200160009055905550505050565b6000612b7b836114c3565b6001600160a01b039093166000908152609760209081526040808320868452825280832085905593825260989052919091209190915550565b828054612bc090613133565b90600052602060002090601f016020900481019282612be25760008555612c28565b82601f10612bfb57805160ff1916838001178555612c28565b82800160010185558215612c28579182015b82811115612c28578251825591602001919060010190612c0d565b50612c34929150612c6e565b5090565b508054612c4490613133565b6000825580601f10612c54575050565b601f016020900490600052602060002090810190611a4f91905b5b80821115612c345760008155600101612c6f565b6001600160e01b031981168114611a4f57600080fd5b600060208284031215612cab57600080fd5b8135611fb781612c83565b600060208284031215612cc857600080fd5b5035919050565b60005b83811015612cea578181015183820152602001612cd2565b8381111561176f5750506000910152565b60008151808452612d13816020860160208601612ccf565b601f01601f19169290920160200192915050565b602081526000611fb76020830184612cfb565b80356001600160a01b0381168114612d5157600080fd5b919050565b60008060408385031215612d6957600080fd5b612d7283612d3a565b946020939093013593505050565b600060208284031215612d9257600080fd5b611fb782612d3a565b600080600060608486031215612db057600080fd5b612db984612d3a565b9250612dc760208501612d3a565b9150604084013590509250925092565b634e487b7160e01b600052604160045260246000fd5b600067ffffffffffffffff80841115612e0857612e08612dd7565b604051601f8501601f19908116603f01168101908282118183101715612e3057612e30612dd7565b81604052809350858152868686011115612e4957600080fd5b858560208301376000602087830101525050509392505050565b600082601f830112612e7457600080fd5b611fb783833560208501612ded565b600060208284031215612e9557600080fd5b813567ffffffffffffffff811115612eac57600080fd5b61216f84828501612e63565b604081526000612ecb6040830185612cfb565b90508260208301529392505050565b600080600060608486031215612eef57600080fd5b833567ffffffffffffffff811115612f0657600080fd5b612f1286828701612e63565b93505060208401359150612f2860408501612d3a565b90509250925092565b6020808252825182820181905260009190848201906040850190845b81811015612f6957835183529284019291840191600101612f4d565b50909695505050505050565b60008060408385031215612f8857600080fd5b50508035926020909101359150565b60008060408385031215612faa57600080fd5b612fb383612d3a565b915060208301358015158114612fc857600080fd5b809150509250929050565b60008060008060808587031215612fe957600080fd5b612ff285612d3a565b935061300060208601612d3a565b925060408501359150606085013567ffffffffffffffff81111561302357600080fd5b8501601f8101871361303457600080fd5b61304387823560208401612ded565b91505092959194509250565b60008060006060848603121561306457600080fd5b61306d84612d3a565b925061307b60208501612d3a565b9150612f2860408501612d3a565b6000806040838503121561309c57600080fd5b6130a583612d3a565b91506130b360208401612d3a565b90509250929050565b634e487b7160e01b600052601160045260246000fd5b60008160001904831182151516156130ec576130ec6130bc565b500290565b60008219821115613104576131046130bc565b500190565b634e487b7160e01b600052601260045260246000fd5b60008261312e5761312e613109565b500690565b600181811c9082168061314757607f821691505b6020821081141561316857634e487b7160e01b600052602260045260246000fd5b50919050565b60008251613180818460208701612ccf565b9190910192915050565b634e487b7160e01b600052603260045260246000fd5b606080825260009082015260208101929092526001600160a01b0316604082015260800190565b60006000198214156131db576131db6130bc565b5060010190565b6020808252818101527f4f776e61626c653a2063616c6c6572206973206e6f7420746865206f776e6572604082015260600190565b60208082526031908201527f4552433732313a207472616e736665722063616c6c6572206973206e6f74206f6040820152701ddb995c881b9bdc88185c1c1c9bdd9959607a1b606082015260800190565b60008282101561327a5761327a6130bc565b500390565b634e487b7160e01b600052603160045260246000fd5b60208082526032908201527f4552433732313a207472616e7366657220746f206e6f6e20455243373231526560408201527131b2b4bb32b91034b6b83632b6b2b73a32b960711b606082015260800190565b6020808252602b908201527f496e697469616c697a61626c653a20636f6e7472616374206973206e6f74206960408201526a6e697469616c697a696e6760a81b606082015260800190565b60008351613344818460208801612ccf565b835190830190613358818360208801612ccf565b01949350505050565b6001600160a01b038581168252841660208201526040810183905260806060820181905260009061339490830184612cfb565b9695505050505050565b6000602082840312156133b057600080fd5b8151611fb781612c83565b6000826133ca576133ca613109565b500490565b6000816133de576133de6130bc565b50600019019056fea26469706673582212200715f2f68fde94882b0420767f4faa6651ff4433972d41b2b2b0a800cde7635c64736f6c634300080b0033",
    "sourcePath": "e:/polygon/NFT_Pack/contracts/PackNFT.sol",
    "compiler": {
        "name": "solc",
        "version": "0.8.11+commit.d7f03943"
    },
    "functionHashes": {
        "LandNFT()": "ba9adc9d",
        "SeedNFT()": "78392298",
        "SkinNFT()": "eb4d2891",
        "_INTERFACE_ID_ERC721_VERIFY_FINGERPRINT()": "16606e4b",
        "_random(uint256)": "046d30c7",
        "admin()": "f851a440",
        "approve(address,uint256)": "095ea7b3",
        "balanceOf(address)": "70a08231",
        "extraInfoMap(uint256)": "53ed8765",
        "getApproved(uint256)": "081812fc",
        "getMetaDataHash(string)": "4f64f049",
        "getTokenIdsByAddress(address)": "89d5feee",
        "initialize(address,address,address)": "c0c53b8b",
        "isApprovedForAll(address,address)": "e985e9c5",
        "isInWhitelist(address)": "09fd8212",
        "mint(string,uint256,address)": "7af1388c",
        "name()": "06fdde03",
        "openPack(uint256)": "50a88c7e",
        "owner()": "8da5cb5b",
        "ownerOf(uint256)": "6352211e",
        "renounceOwnership()": "715018a6",
        "safeTransferFrom(address,address,uint256)": "42842e0e",
        "safeTransferFrom(address,address,uint256,bytes)": "b88d4fde",
        "setApprovalForAll(address,bool)": "a22cb465",
        "setBaseURI(string)": "55f804b3",
        "supportsInterface(bytes4)": "01ffc9a7",
        "symbol()": "95d89b41",
        "tokenByIndex(uint256)": "4f6ccce7",
        "tokenMetaData(uint256)": "af6a3476",
        "tokenOfOwnerByIndex(address,uint256)": "2f745c59",
        "tokenURI(uint256)": "c87b56dd",
        "totalSupply()": "18160ddd",
        "transferFrom(address,address,uint256)": "23b872dd",
        "transferOwnership(address)": "f2fde38b",
        "verifyFingerprint(uint256,bytes32)": "8cb5b56b"
    },
    "gasEstimates": {
        "creation": {
            "codeDepositCost": "2668000",
            "executionCost": "2892",
            "totalCost": "2670892"
        },
        "external": {
            "LandNFT()": "2426",
            "SeedNFT()": "2427",
            "SkinNFT()": "2425",
            "_INTERFACE_ID_ERC721_VERIFY_FINGERPRINT()": "309",
            "_random(uint256)": "infinite",
            "admin()": "2469",
            "approve(address,uint256)": "infinite",
            "balanceOf(address)": "2635",
            "extraInfoMap(uint256)": "infinite",
            "getApproved(uint256)": "4844",
            "getMetaDataHash(string)": "infinite",
            "getTokenIdsByAddress(address)": "infinite",
            "initialize(address,address,address)": "infinite",
            "isApprovedForAll(address,address)": "infinite",
            "isInWhitelist(address)": "2606",
            "mint(string,uint256,address)": "infinite",
            "name()": "infinite",
            "openPack(uint256)": "infinite",
            "owner()": "2420",
            "ownerOf(uint256)": "2689",
            "renounceOwnership()": "28185",
            "safeTransferFrom(address,address,uint256)": "infinite",
            "safeTransferFrom(address,address,uint256,bytes)": "infinite",
            "setApprovalForAll(address,bool)": "26819",
            "setBaseURI(string)": "infinite",
            "supportsInterface(bytes4)": "infinite",
            "symbol()": "infinite",
            "tokenByIndex(uint256)": "6760",
            "tokenMetaData(uint256)": "4737",
            "tokenOfOwnerByIndex(address,uint256)": "4998",
            "tokenURI(uint256)": "infinite",
            "totalSupply()": "2404",
            "transferFrom(address,address,uint256)": "infinite",
            "transferOwnership(address)": "28422",
            "verifyFingerprint(uint256,bytes32)": "2535"
        },
        "internal": {
            "_baseURI()": "infinite",
            "_beforeTokenTransfer(address,address,uint256)": "infinite",
            "_burn(uint256)": "infinite",
            "_setTokenMeta(uint256,uint256)": "infinite",
            "removeTokenIdFromMappingArray(address,uint256)": "infinite",
            "setTokenIdsToAddress(address,uint256)": "infinite"
        }
    }
}